:020000040800F2
:1000000090060020750100087D0100087F010008AE
:10001000810100088301000885010008000000003C
:100020000000000000000000000000008701000840
:1000300089010008000000008B0100088D01000804
:100040008F0100088F0100088F0100088F01000850
:100050008F0100088F0100088F0100088F01000840
:100060008F0100088F0100088F0100088F01000830
:100070008F0100088F0100088F0100088F01000820
:100080008F0100088F0100088F0100088F01000810
:100090008F0100088F0100088F0100088F01000800
:1000A0008F0100088F0100088F0100088F010008F0
:1000B0008F0100088F0100088F0100088F010008E0
:1000C0008F0100088F0100088F0100088F010008D0
:1000D0008F0100088F0100088F0100088F010008C0
:1000E0008F0100088F0100088F01000800F002F85E
:1000F00000F031F80AA090E8000C82448344AAF191
:100100000107DA4501D100F026F8AFF2090EBAE88E
:100110000F0013F0010F18BFFB1A43F0010318473B
:10012000D00E0000E00E0000002300240025002671
:10013000103A28BF78C1FBD8520728BF30C148BF4A
:100140000B607047752900F07D80002070471FB557
:100150001FBD10B510BD00F02AF91146FFF7F7FFDB
:1001600000F00AFD00F048F903B4FFF7F2FF03BC0A
:1001700000F050F90948804709480047FEE7FEE7CC
:10018000FEE7FEE7FEE7FEE7FEE7FEE7FEE7FEE747
:1001900004480549054A064B704700005909000804
:1001A000ED00000890000020900600209002002042
:1001B000900200200FB41CB5074B06AA7B44694689
:1001C0000090059800F0DBF80020694600F0EAF89E
:1001D0001CBC5DF814FB0000E50100002DE9F041B6
:1001E0000E460446002020622046E168884730B36E
:1001F000252805D0D4E901219047206A401CF2E768
:10020000E168204600278847050018D0A5F1410085
:10021000192802D820354FF4006732462946204677
:100220002760FFF78FFF40B1012804D0F61D26F0AC
:1002300007060836D8E7361DD6E72846DAE7206AEB
:10024000BDE8F0812DE9F0410646002410687529CB
:10025000314616A510D0AFF30080002802DA4042E4
:1002600013A507E031688A0701D512A502E0490706
:1002700004D511A5012401E0AFF3008000210A227A
:1002800006F1240709E0B0FBF2FCB0FBF2F302FB3D
:100290001C00303078541846491C0028F3D12346FE
:1002A0002A463046BDE8F04100F00BB800000000DF
:1002B0002D0000002B000000200000007047704758
:1002C00070472DE9F0470D4699469246044600F1E5
:1002D00024080168880604D5E06921F01001216036
:1002E00000E00120A84201DD471B00E00027A169D2
:1002F0007A1902EB0900081AA0612078C00602D41E
:100300002046AFF30080002608E0D4E901211AF866
:1003100006009047206A401C761C20624E45F4DBA4
:100320002078C0060AD52046AFF3008006E0D4E965
:10033000012130209047206A401C2062381EA7F11E
:100340000107F4DC07E0D4E9012118F80500904723
:10035000206A401C2062281EA5F10105F3DC20461E
:10036000AFF300802078000602D50220BDE8F087B8
:100370000120FBE701694A1C02610878704700B55B
:100380008FB0CDE901310021059105497944CDE9CE
:10039000031011466846FFF721FF0FB000BD0000B3
:1003A000E5FFFFFF0A6802F8010B0A607047754617
:1003B00000F02CF8AE4605006946534620F00700D1
:1003C000854618B020B5FFF7E3FEBDE820404FF0AA
:1003D00000064FF000074FF000084FF0000BAC464E
:1003E000ACE8C009ACE8C009ACE8C009ACE8C00999
:1003F00021F007018D46704710B50446AFF3008029
:100400002046BDE81040FFF7AFBE0000004870472F
:100410000000002001491820ABBEFEE726000200C4
:100420007047000080B50A2000F086FB46200121BD
:1004300000F090F90A2000F07FFB4620102100F028
:1004400089F9C82000F078FB80BD000070B545F246
:100450000044C4F20004402520460121C0F20305F7
:1004600000F0F0F8A5F13F062046314600F0D4F840
:100470000028F9D020464621012200F061F9A5F1BB
:100480003E0600BF2046314600F0C6F80028F9D0ED
:100490002046294600F0C0F80028F9D0204600F098
:1004A0004BF906462046294600F0B6F80028F9D058
:1004B000204600F041F905462046002100F0A2F850
:1004C0002046012100F0C8F82046012100F09AF8EA
:1004D00045EA062000F011FD43F23333C3F6F3730F
:1004E0004FF0333200F082FB00F0D8FC70BD00000A
:1004F00010B586B00820012100F06EF94FF400100D
:10050000012100F05DF9C02045F20044C1F603402E
:10051000C4F20004059004F5384005A900F01AF86B
:1005200048F2A060C0F2010001900020CBF6FF70FD
:1005300002904FF0806003904FF48040ADF81000BF
:1005400001A9204600F092F82046012100F070F841
:1005500006B010BD2DE9F041CA7802F00F0CD306A9
:1005600044BF8B784CEA030C09880B0621D0056840
:1005700000234FF001084FF00F0E002608E000BFE7
:10058000282A08BF47610136082E03F104030FD063
:1005900008FA06F70F42F6D00EFA03F425EA04042F
:1005A0000CFA03F5482A45EA0405E9D10761EAE7B0
:1005B0000560B1F5807F38BFBDE8F0814468002355
:1005C0004FF4807E4FF00F08002607E0282A08BF6E
:1005D00047610136082E03F1040310D00EFA06F726
:1005E00007EA0105BD42F4D108FA03F5AC430CFA61
:1005F00003F5482A44EA0504E8D10761E9E74460C5
:10060000BDE8F0810288002942F4806308BF22F42B
:100610008063038070470000828A008B60F317427A
:1006200002EA0100401AB0FA80F040097047000069
:100630000288002942F0010308BF22F00103038071
:10064000704700000288002942F4807308BF22F43A
:1006500080730380704700000288002942F4007311
:1006600008BF22F4007303807047000070B586B0A5
:10067000044680880D4620F03F0601A800F0B8F837
:1006800003994DF68360C4F21B30A1FB000346EAD8
:100690009340A080208820F0010020802A6848F242
:1006A000A060C0F2010082424FEA934008D8520095
:1006B000B1FBF2F14FF6FC72114208BF042125E0B4
:1006C000EB884BF6FF76B34204D102EB4202B1FB5A
:1006D000F2F105E019235A43B1FBF2F141F48041F4
:1006E0004FF49672504344F6D352C1F26202A0FB1B
:1006F000020208466FF31F30B0FA80F04009084349
:1007000048F20001CFF6FF710143900901302084C7
:10071000A18320884FF6F53140F001002080208829
:100720006A890840A988084310432080A88929893C
:100730000843208106B070BD008AC0B27047000037
:1007400041F00103002A08BF01F0FE030382704755
:1007500001827047F0B581B045F20044C4F2000454
:100760000D46064620460121FFF76CFF0127C0F227
:10077000030700BF20463946FFF74EFF0028F9D097
:100780008227204631460022C0F20707FFF7D8FF34
:1007900020463946FFF740FF0028F9D02046294679
:1007A000FFF7D6FFBD1C00BF20462946FFF734FFE8
:1007B0000028F9D020460121FFF74EFF01B0F0BD1F
:1007C000002941F21C01C4F202010A680CBF22EAAE
:1007D0000000104308607047002941F21801C4F27C
:1007E00002010A680CBF22EA00001043086070474B
:1007F00010B541F20404C4F20204226802F00C02B3
:10080000082A41F20022C0F27A021CD12368D4F8EF
:1008100000C0C3F3834E5FEACC330EF1020C06D462
:1008200040F60012C0F23D020CFB02F20BE023681E
:100830009B0302D40CFB02F205E040F60012C0F26A
:100840003D020CFB02F20260226840F6D473C2F350
:100850000312C0F600039A5C0168D140416022682F
:10086000C2F302229A5C21FA02F282602268C2F389
:10087000C2229A5C40F6D073D140C1602268C0F6B3
:100880000003C2F381329A5CB1FBF2F1016110BD49
:1008900080B500F001F880BD82B041F20400002173
:1008A000C4F202000191009150F8041C41F480311F
:1008B00040F8041C50F8041C01F400310091019927
:1008C00001310191009919B90199B1F5A06FF1D1E8
:1008D00050F8041C890354BF0021012100910099A4
:1008E000012936D142F20001C4F202010A6842F045
:1008F00010020A600A6822F007020A600A6842F0E1
:1009000002020A600168016001680160016841F447
:1009100080610160016821F47C110160016841F48B
:10092000E811016050F8041C41F0807140F8041C8B
:1009300050F8041C8901FBD5016821F00301016016
:10094000016841F002010160016801F00C01082911
:10095000FAD102B07047000080B541F20000C4F245
:1009600002000168002241F0010101604168CFF6F8
:10097000FF021140416001684FF6FF72CFF6F66248
:1009800011400160016821F480210160416821F477
:10099000FE0141604FF41F018160FFF779FF4EF6C1
:1009A0000850CEF200004FF00061016080BD0000F1
:1009B00010B543F60004C4F201040146204600F0DD
:1009C00081F800BF2046802100F01CF80028F9D0F3
:1009D00010BD000010B50178002908BF10BD441EED
:1009E000C8B2FFF7E5FFA17801340029F8D110BDA6
:1009F0008289002942F4005308BF22F40053838106
:100A0000704700000088084018BF012070470000B0
:100A100070B586B00446008A0D46C98820F440505F
:100A200008432082A0894EF6F3110840A9882A893C
:100A30006B89084310431843A081A08AA98920F438
:100A40004070084301AEA0823046FFF7D1FE43F666
:100A5000000106F10800C4F201018C4208BF06F152
:100A60000C0000681922B4F90C1050432A680223C4
:100A7000002948BF012302FA03F1B0FBF1F048F26C
:100A80001F51C5F2EB11A0FB01235A096FF063035C
:100A900002FB0300B4F90C300426002B48BF0326E8
:100AA00000FA06F000F13200A0FB01014FF00F0048
:100AB00048BF072000EA511040EA0210208106B02A
:100AC00070BD00006FF35F2181807047B0B586B0C4
:100AD00044F204000121FFF77FFE40F2002040F6BF
:100AE0000004C1F60300C4F2010405AD05902046E0
:100AF0002946FFF72FFD40F20040C0F20340059069
:100B000020462946FFF726FD4FF4E13001900020F2
:100B10004FF4402104F54054ADF808000391ADF8BE
:100B2000100001A92046FFF773FF20460121FFF7BF
:100B30005FFF06B0B0BD000010B5002808BF10BDB3
:100B40004EF2100241F63F114FF0000CCEF20002BF
:100B50004FF0050EC0F20101002300BFC2F800E013
:100B60005160C2F808C000BF1468E403FCD501332B
:100B70008342F3D310BD0000FFF7BAFCFFF7A6FFD6
:100B800012A0FFF727FFFFF74DFC40F6E47040F29C
:100B9000880640F26004C827C0F60000C2F20006D2
:100BA000C2F200040DA500BFFFF714FFB8B2FFF7B3
:100BB000C3FFFFF74BFC0246308020462946FFF773
:100BC000F9FA4FF4FA772046EEE700BF70726570CD
:100BD000617265656565200A0000000076616C75CC
:100BE00065204C55583A202575200A002DE9C04152
:100BF00030B4DFF8A0C23CEA111418BF3CEA131469
:100C000000F0EC801CEA111481EA030544EAD57473
:100C100018BF1CEA131500F0C780A4EB050404F10B
:100C20007F7404F500344FF0004545EAC12145EAE0
:100C3000C32341EA505143EA52534FEAC0204FEADE
:100C4000C222994208BF904200F09C804FEA13658F
:100C50000FF24016765D4FEA134506FB05F7C7F124
:100C6000807706FB07F74FEAD737A7FB0368764282
:100C7000A7FB06CEC8F5803838BFA8F1010807FBEE
:100C800008E6A6FB028C4FF0000EE6FB03CEDCF17B
:100C9000000CCEF1004E38BFAEF1010EA6FB0C5891
:100CA0004FF00007E6FB0E87A1FB08C6A0FB07CEAE
:100CB00016EB0E064FF0000545F10005E1FB076558
:100CC00015F1E04E7EBFA4F580345FEA46066D4123
:100CD00016F1800745F100054FEA172747EA056737
:100CE0004FEA15254FEA0666A6F1DE46B6F1805FAB
:100CF0001FD9384605EBC47124F0010C01EB0C112F
:100D0000BCF1FE6F02D8F0BCBDE8008124425CBF9C
:100D100001F5801E9EEAC47F02D4F0BCBDE80081CC
:100D2000244238D4A1F1C041F0BCBDE8004100F03C
:100D300049B94FEAD02040EA41504FEAD1214FEA69
:100D4000D22242EA43524FEAD323A7FB028607FB93
:100D5000036605FB02661EEA0E0F58BFA6EB00569F
:100D6000B6EB00564FEA520E4EEAC37E18EB0E0E5B
:100D700056EB530EBDD518EB02085E417F1C55F1B2
:100D80000005B6E74FF480154FF000074FF000065E
:100D90004FF00008ADE701F1C04101F000414FF014
:100DA0000000F0BCBDE800810CEA131511EA0C1F2D
:100DB00000D00CE013EA0C1F00F025804FF000007B
:100DC00081EA030101F00041F0BCBDE80081F0BC04
:100DD000BDE8004181EA030100F0F4B8F0BCBDE8D1
:100DE000004170B500F0A0F8097EFC3E00F007B8A5
:100DF0004FF0000081EA030101F00041704781EAF1
:100E0000030100F0DFB8F0BCBDE8004122494FF01B
:100E100000007047FFFDFBF9F7F5F4F2F0EEEDEBA3
:100E2000E9E8E6E4E3E1E0DEDDDBDAD8D7D5D4D3E8
:100E3000D1D0CFCDCCCBCAC8C7C6C5C4C2C1C0BF34
:100E4000BEBDBCBBBAB9B8B7B6B5B4B3B2B1B0AF3A
:100E5000AEADACABAAA9A8A8A7A6A5A4A3A3A2A11E
:100E6000A09F9F9E9D9C9C9B9A99999897979695D9
:100E700095949393929191908F8F8E8E8D8C8C8B75
:100E80008B8A8989888887878685858484838382FD
:100E9000828181800000FF070000F87F4FEA410354
:100EA0004FEA5353A3F58063D3F11E03C8BFD3F1B8
:100EB000210C0CDD4FF0004242EAC12242EA5052BE
:100EC00032FA03FC8CEAE17CACEBE1707047102B4A
:100ED000C4BF0020704703F5787CBCF1FF3F04D00D
:100EE0006FF0004282EA2100704770B500F01CF8F4
:100EF0004992248000207047F2E710F0004248BF7A
:100F00004042B0FA80F310FA03F10AD0C3F11D0396
:100F100003F5806302EB03524FEA415002EBD1210B
:100F200070474FF0000070470EF1020E2EF0030ED6
:100F30005EF8046B364205D4012A43EB030515F530
:100F4000001F12D8012841EB010C1CF5001F0CD822
:100F50000ED14FEAD17C0CEB4C0C0CF1020C15F5C8
:100F6000001F08BF4CEBD37C04E04FF0080C01E0FD
:100F70004FEAD37C0CEB4C0526FA05F606F0070683
:100F8000B6F1040C06D20EEB860CBDE870404CF0B6
:100F9000010C6047DFE80CF0090B02024FF0004142
:100FA000A1F500214FF0000070BD19461046012840
:100FB00051EB010418BFD4F5001484BF002001F0E8
:100FC000004170BD0808A0F500114FEA31017047DB
:100FD00002040608000000000102030401020304E9
:100FE0000607080966696E697368200A0000000038
:100FF00000100008000000209006000028010008F2
:04000005080000ED02
:00000001FF
